{
  "address": "0x2Ed2B927195B9F6F225925Cc4CB12354D828B730",
  "abi": [
    {
      "inputs": [
        {
          "internalType": "address",
          "name": "_aaveLendingPoolAddress",
          "type": "address"
        },
        {
          "internalType": "address",
          "name": "_aaveProtocolDataProviderAddress",
          "type": "address"
        },
        {
          "internalType": "address",
          "name": "_priceFeedAddress",
          "type": "address"
        },
        {
          "internalType": "address",
          "name": "_feesManagerAddress",
          "type": "address"
        }
      ],
      "stateMutability": "nonpayable",
      "type": "constructor"
    },
    {
      "anonymous": false,
      "inputs": [
        {
          "indexed": true,
          "internalType": "address",
          "name": "_owner",
          "type": "address"
        },
        {
          "indexed": false,
          "internalType": "address",
          "name": "_clone",
          "type": "address"
        }
      ],
      "name": "CloneCreated",
      "type": "event"
    },
    {
      "inputs": [],
      "name": "createClone",
      "outputs": [],
      "stateMutability": "nonpayable",
      "type": "function"
    },
    {
      "inputs": [
        {
          "internalType": "address",
          "name": "",
          "type": "address"
        }
      ],
      "name": "userContracts",
      "outputs": [
        {
          "internalType": "address",
          "name": "",
          "type": "address"
        }
      ],
      "stateMutability": "view",
      "type": "function"
    }
  ],
  "transactionHash": "0x31182df62e7fa9b6ab1de132bc1d532a039656f56479f2e4e6832b76fb0f459b",
  "args": [
    "0x9198F13B08E299d85E096929fA9781A1E3d5d827",
    "0xFA3bD19110d986c5e5E9DD5F69362d05035D045B",
    "0xAD3CA32E805cD4047B2e50416f7d6040CeEd95D2",
    "0xacCc1074c81Fca9F80f61f588f0D2a06a599C2Dd"
  ],
  "numDeployments": 1,
  "solcInputHash": "74d66a33bb47b3b984a719ae0edd406a",
  "bytecode": "0x61012060405234801561001157600080fd5b50604051612fb1380380612fb1833981810160405281019061003391906101d9565b60405161003f90610169565b604051809103906000f08015801561005b573d6000803e3d6000fd5b5073ffffffffffffffffffffffffffffffffffffffff1660808173ffffffffffffffffffffffffffffffffffffffff16815250508373ffffffffffffffffffffffffffffffffffffffff1660a08173ffffffffffffffffffffffffffffffffffffffff16815250508273ffffffffffffffffffffffffffffffffffffffff1660c08173ffffffffffffffffffffffffffffffffffffffff16815250508173ffffffffffffffffffffffffffffffffffffffff1660e08173ffffffffffffffffffffffffffffffffffffffff16815250508073ffffffffffffffffffffffffffffffffffffffff166101008173ffffffffffffffffffffffffffffffffffffffff168152505050505050610240565b61281f8061079283390190565b600080fd5b600073ffffffffffffffffffffffffffffffffffffffff82169050919050565b60006101a68261017b565b9050919050565b6101b68161019b565b81146101c157600080fd5b50565b6000815190506101d3816101ad565b92915050565b600080600080608085870312156101f3576101f2610176565b5b6000610201878288016101c4565b9450506020610212878288016101c4565b9350506040610223878288016101c4565b9250506060610234878288016101c4565b91505092959194509250565b60805160a05160c05160e05161010051610510610282600039600061015601526000610135015260006101140152600060f30152600060af01526105106000f3fe608060405234801561001057600080fd5b50600436106100365760003560e01c80630687b7851461003b57806364f2d4b91461006b575b600080fd5b610055600480360381019061005091906103b3565b610075565b60405161006291906103ef565b60405180910390f35b6100736100a8565b005b60006020528060005260406000206000915054906101000a900473ffffffffffffffffffffffffffffffffffffffff1681565b60006100d37f0000000000000000000000000000000000000000000000000000000000000000610296565b90508073ffffffffffffffffffffffffffffffffffffffff16631459457a7f00000000000000000000000000000000000000000000000000000000000000007f00000000000000000000000000000000000000000000000000000000000000007f00000000000000000000000000000000000000000000000000000000000000007f0000000000000000000000000000000000000000000000000000000000000000336040518663ffffffff1660e01b815260040161019695949392919061040a565b600060405180830381600087803b1580156101b057600080fd5b505af11580156101c4573d6000803e3d6000fd5b50505050806000803373ffffffffffffffffffffffffffffffffffffffff1673ffffffffffffffffffffffffffffffffffffffff16815260200190815260200160002060006101000a81548173ffffffffffffffffffffffffffffffffffffffff021916908373ffffffffffffffffffffffffffffffffffffffff1602179055503373ffffffffffffffffffffffffffffffffffffffff167f3d2b821286d97aa9d35330d87a82f7b548b9737b10e2d1ba59994edfd50e9d2b8260405161028b91906103ef565b60405180910390a250565b6000763d602d80600a3d3981f3363d3d373d3d3d363d730000008260601b60e81c176000526e5af43d82803e903d91602b57fd5bf38260781b17602052603760096000f09050600073ffffffffffffffffffffffffffffffffffffffff168173ffffffffffffffffffffffffffffffffffffffff160361034b576040517f08c379a0000000000000000000000000000000000000000000000000000000008152600401610342906104ba565b60405180910390fd5b919050565b600080fd5b600073ffffffffffffffffffffffffffffffffffffffff82169050919050565b600061038082610355565b9050919050565b61039081610375565b811461039b57600080fd5b50565b6000813590506103ad81610387565b92915050565b6000602082840312156103c9576103c8610350565b5b60006103d78482850161039e565b91505092915050565b6103e981610375565b82525050565b600060208201905061040460008301846103e0565b92915050565b600060a08201905061041f60008301886103e0565b61042c60208301876103e0565b61043960408301866103e0565b61044660608301856103e0565b61045360808301846103e0565b9695505050505050565b600082825260208201905092915050565b7f455243313136373a20637265617465206661696c656400000000000000000000600082015250565b60006104a460168361045d565b91506104af8261046e565b602082019050919050565b600060208201905081810360008301526104d381610497565b905091905056fea26469706673582212201ce57f06b85994a1ce0fea105a16506ba37513d95f32cf22557e04dae9b7c71964736f6c6343000811003360806040523480156200001157600080fd5b5062000032620000266200003860201b60201c565b6200004060201b60201c565b62000104565b600033905090565b60008060009054906101000a900473ffffffffffffffffffffffffffffffffffffffff169050816000806101000a81548173ffffffffffffffffffffffffffffffffffffffff021916908373ffffffffffffffffffffffffffffffffffffffff1602179055508173ffffffffffffffffffffffffffffffffffffffff168173ffffffffffffffffffffffffffffffffffffffff167f8be0079c531659141344cd1fd0a4f28419497f9722a3daafe3b4186f6b6457e060405160405180910390a35050565b61270b80620001146000396000f3fe608060405234801561001057600080fd5b50600436106100885760003560e01c80638da5cb5b1161005b5780638da5cb5b146100ff578063cfe69a051461011d578063f2fde38b1461014d578063f3fef3a31461016957610088565b80631459457a1461008d57806347e7ef24146100a9578063715018a6146100c55780638810a2f9146100cf575b600080fd5b6100a760048036038101906100a2919061176f565b610185565b005b6100c360048036038101906100be9190611820565b6103d2565b005b6100cd61062f565b005b6100e960048036038101906100e49190611860565b610643565b6040516100f6919061189c565b60405180910390f35b61010761065b565b60405161011491906118c6565b60405180910390f35b61013760048036038101906101329190611860565b610684565b604051610144919061189c565b60405180910390f35b61016760048036038101906101629190611860565b61069c565b005b610183600480360381019061017e9190611820565b61071f565b005b60008060159054906101000a900460ff161590508080156101b857506001600060149054906101000a900460ff1660ff16105b806101e757506101c730610b0e565b1580156101e657506001600060149054906101000a900460ff1660ff16145b5b610226576040517f08c379a000000000000000000000000000000000000000000000000000000000815260040161021d90611964565b60405180910390fd5b6001600060146101000a81548160ff021916908360ff1602179055508015610264576001600060156101000a81548160ff0219169083151502179055505b85600160006101000a81548173ffffffffffffffffffffffffffffffffffffffff021916908373ffffffffffffffffffffffffffffffffffffffff16021790555084600260006101000a81548173ffffffffffffffffffffffffffffffffffffffff021916908373ffffffffffffffffffffffffffffffffffffffff16021790555083600360006101000a81548173ffffffffffffffffffffffffffffffffffffffff021916908373ffffffffffffffffffffffffffffffffffffffff16021790555082600460006101000a81548173ffffffffffffffffffffffffffffffffffffffff021916908373ffffffffffffffffffffffffffffffffffffffff16021790555061037182610b31565b80156103ca5760008060156101000a81548160ff0219169083151502179055507f7f26b83ff96e1f2b6a682f133852f6798a09c465da95921460cefb384740249860016040516103c191906119d6565b60405180910390a15b505050505050565b6103da610bf5565b6000811161041d576040517f08c379a000000000000000000000000000000000000000000000000000000000815260040161041490611a3d565b60405180910390fd5b61044a3330838573ffffffffffffffffffffffffffffffffffffffff16610c73909392919063ffffffff16565b60006104568383610cfc565b90506104628382610d8a565b600660008573ffffffffffffffffffffffffffffffffffffffff1673ffffffffffffffffffffffffffffffffffffffff1681526020019081526020016000208190555080600560008573ffffffffffffffffffffffffffffffffffffffff1673ffffffffffffffffffffffffffffffffffffffff16815260200190815260200160002060008282546104f49190611a8c565b92505081905550610548600160009054906101000a900473ffffffffffffffffffffffffffffffffffffffff16828573ffffffffffffffffffffffffffffffffffffffff16610f7e9092919063ffffffff16565b600160009054906101000a900473ffffffffffffffffffffffffffffffffffffffff1673ffffffffffffffffffffffffffffffffffffffff1663e8eda9df84833060006040518563ffffffff1660e01b81526004016105aa9493929190611b09565b600060405180830381600087803b1580156105c457600080fd5b505af11580156105d8573d6000803e3d6000fd5b505050508273ffffffffffffffffffffffffffffffffffffffff167fe1fffcc4923d04b559f4d29a8bfc6cda04eb5b0d3c460751c2402c5c5cc9109c82604051610622919061189c565b60405180910390a2505050565b610637610bf5565b6106416000610b31565b565b60066020528060005260406000206000915090505481565b60008060009054906101000a900473ffffffffffffffffffffffffffffffffffffffff16905090565b60056020528060005260406000206000915090505481565b6106a4610bf5565b600073ffffffffffffffffffffffffffffffffffffffff168173ffffffffffffffffffffffffffffffffffffffff1603610713576040517f08c379a000000000000000000000000000000000000000000000000000000000815260040161070a90611bc0565b60405180910390fd5b61071c81610b31565b50565b610727610bf5565b6000811161076a576040517f08c379a000000000000000000000000000000000000000000000000000000000815260040161076190611c2c565b60405180910390fd5b6000600260009054906101000a900473ffffffffffffffffffffffffffffffffffffffff1673ffffffffffffffffffffffffffffffffffffffff166328dd2d0184306040518363ffffffff1660e01b81526004016107c9929190611c4c565b61012060405180830381865afa1580156107e7573d6000803e3d6000fd5b505050506040513d601f19601f8201168201806040525081019061080b9190611cff565b5050505050505050905080821115610858576040517f08c379a000000000000000000000000000000000000000000000000000000000815260040161084f90611e15565b60405180910390fd5b6000600360009054906101000a900473ffffffffffffffffffffffffffffffffffffffff1673ffffffffffffffffffffffffffffffffffffffff166316345f18856040518263ffffffff1660e01b81526004016108b591906118c6565b602060405180830381865afa1580156108d2573d6000803e3d6000fd5b505050506040513d601f19601f820116820180604052508101906108f69190611e35565b90506000610905858484611090565b90508084111561091757809350600091505b6000600160009054906101000a900473ffffffffffffffffffffffffffffffffffffffff1673ffffffffffffffffffffffffffffffffffffffff166369328dec8787306040518463ffffffff1660e01b815260040161097893929190611e62565b6020604051808303816000875af1158015610997573d6000803e3d6000fd5b505050506040513d601f19601f820116820180604052508101906109bb9190611e35565b116109fb576040517f08c379a00000000000000000000000000000000000000000000000000000000081526004016109f290611ee5565b60405180910390fd5b8381610a079190611f05565b600560008773ffffffffffffffffffffffffffffffffffffffff1673ffffffffffffffffffffffffffffffffffffffff1681526020019081526020016000208190555081600660008773ffffffffffffffffffffffffffffffffffffffff1673ffffffffffffffffffffffffffffffffffffffff16815260200190815260200160002081905550610ab933858773ffffffffffffffffffffffffffffffffffffffff1661122a9092919063ffffffff16565b8473ffffffffffffffffffffffffffffffffffffffff167f884edad9ce6fa2440d8a54cc123490eb96d2768479d49ff9c7366125a942436485604051610aff919061189c565b60405180910390a25050505050565b6000808273ffffffffffffffffffffffffffffffffffffffff163b119050919050565b60008060009054906101000a900473ffffffffffffffffffffffffffffffffffffffff169050816000806101000a81548173ffffffffffffffffffffffffffffffffffffffff021916908373ffffffffffffffffffffffffffffffffffffffff1602179055508173ffffffffffffffffffffffffffffffffffffffff168173ffffffffffffffffffffffffffffffffffffffff167f8be0079c531659141344cd1fd0a4f28419497f9722a3daafe3b4186f6b6457e060405160405180910390a35050565b610bfd6112b0565b73ffffffffffffffffffffffffffffffffffffffff16610c1b61065b565b73ffffffffffffffffffffffffffffffffffffffff1614610c71576040517f08c379a0000000000000000000000000000000000000000000000000000000008152600401610c6890611f85565b60405180910390fd5b565b610cf6846323b872dd60e01b858585604051602401610c9493929190611fa5565b604051602081830303815290604052907bffffffffffffffffffffffffffffffffffffffffffffffffffffffff19166020820180517bffffffffffffffffffffffffffffffffffffffffffffffffffffffff83818316178352505050506112b8565b50505050565b600060648211610d0b57600080fd5b60006064600284610d1c9190611fdc565b610d26919061204d565b9050610d75600460009054906101000a900473ffffffffffffffffffffffffffffffffffffffff16828673ffffffffffffffffffffffffffffffffffffffff1661122a9092919063ffffffff16565b8083610d819190611f05565b91505092915050565b60008082600560008673ffffffffffffffffffffffffffffffffffffffff1673ffffffffffffffffffffffffffffffffffffffff16815260200190815260200160002054610dd89190611a8c565b905060008111610e1d576040517f08c379a0000000000000000000000000000000000000000000000000000000008152600401610e14906120ca565b60405180910390fd5b6000600660008673ffffffffffffffffffffffffffffffffffffffff1673ffffffffffffffffffffffffffffffffffffffff16815260200190815260200160002054600560008773ffffffffffffffffffffffffffffffffffffffff1673ffffffffffffffffffffffffffffffffffffffff16815260200190815260200160002054610ea99190611fdc565b90506000600360009054906101000a900473ffffffffffffffffffffffffffffffffffffffff1673ffffffffffffffffffffffffffffffffffffffff166316345f18876040518263ffffffff1660e01b8152600401610f0891906118c6565b602060405180830381865afa158015610f25573d6000803e3d6000fd5b505050506040513d601f19601f82011682018060405250810190610f499190611e35565b905060008186610f599190611fdc565b9050838382610f689190611a8c565b610f72919061204d565b94505050505092915050565b6000818473ffffffffffffffffffffffffffffffffffffffff1663dd62ed3e30866040518363ffffffff1660e01b8152600401610fbc929190611c4c565b602060405180830381865afa158015610fd9573d6000803e3d6000fd5b505050506040513d601f19601f82011682018060405250810190610ffd9190611e35565b6110079190611a8c565b905061108a8463095ea7b360e01b85846040516024016110289291906120ea565b604051602081830303815290604052907bffffffffffffffffffffffffffffffffffffffffffffffffffffffff19166020820180517bffffffffffffffffffffffffffffffffffffffffffffffffffffffff83818316178352505050506112b8565b50505050565b60008061109d858561137f565b90506000670de0b6b3a76400008583866110b7919061211d565b6110c19190612160565b6110cb91906121d8565b9050606481131561121d5760006064600a836110e79190611fdc565b6110f1919061204d565b9050600085670de0b6b3a76400008361110a9190611fdc565b611114919061204d565b9050600160009054906101000a900473ffffffffffffffffffffffffffffffffffffffff1673ffffffffffffffffffffffffffffffffffffffff166369328dec8983306040518463ffffffff1660e01b815260040161117593929190611e62565b6020604051808303816000875af1158015611194573d6000803e3d6000fd5b505050506040513d601f19601f820116820180604052508101906111b89190611e35565b50611206600460009054906101000a900473ffffffffffffffffffffffffffffffffffffffff16828a73ffffffffffffffffffffffffffffffffffffffff1661122a9092919063ffffffff16565b80876112129190611f05565b945050505050611223565b84925050505b9392505050565b6112ab8363a9059cbb60e01b84846040516024016112499291906120ea565b604051602081830303815290604052907bffffffffffffffffffffffffffffffffffffffffffffffffffffffff19166020820180517bffffffffffffffffffffffffffffffffffffffffffffffffffffffff83818316178352505050506112b8565b505050565b600033905090565b600061131a826040518060400160405280602081526020017f5361666545524332303a206c6f772d6c6576656c2063616c6c206661696c65648152508573ffffffffffffffffffffffffffffffffffffffff1661153f9092919063ffffffff16565b905060008151111561137a578080602001905181019061133a9190612242565b611379576040517f08c379a0000000000000000000000000000000000000000000000000000000008152600401611370906122e1565b60405180910390fd5b5b505050565b600080600660008573ffffffffffffffffffffffffffffffffffffffff1673ffffffffffffffffffffffffffffffffffffffff16815260200190815260200160002054600560008673ffffffffffffffffffffffffffffffffffffffff1673ffffffffffffffffffffffffffffffffffffffff1681526020019081526020016000205461140c9190611fdc565b905060128473ffffffffffffffffffffffffffffffffffffffff1663313ce5676040518163ffffffff1660e01b8152600401602060405180830381865afa15801561145b573d6000803e3d6000fd5b505050506040513d601f19601f8201168201806040525081019061147f919061232d565b60ff16101561152a576000670de0b6b3a76400008573ffffffffffffffffffffffffffffffffffffffff1663313ce5676040518163ffffffff1660e01b8152600401602060405180830381865afa1580156114de573d6000803e3d6000fd5b505050506040513d601f19601f82011682018060405250810190611502919061232d565b600a61150e919061248d565b611518919061204d565b905080826115269190611fdc565b9150505b8281611536919061204d565b91505092915050565b606061154e8484600085611557565b90509392505050565b60608247101561159c576040517f08c379a00000000000000000000000000000000000000000000000000000000081526004016115939061254a565b60405180910390fd5b6000808673ffffffffffffffffffffffffffffffffffffffff1685876040516115c591906125db565b60006040518083038185875af1925050503d8060008114611602576040519150601f19603f3d011682016040523d82523d6000602084013e611607565b606091505b509150915061161887838387611624565b92505050949350505050565b6060831561168657600083510361167e5761163e85611699565b61167d576040517f08c379a00000000000000000000000000000000000000000000000000000000081526004016116749061263e565b60405180910390fd5b5b829050611691565b61169083836116bc565b5b949350505050565b6000808273ffffffffffffffffffffffffffffffffffffffff163b119050919050565b6000825111156116cf5781518083602001fd5b806040517f08c379a000000000000000000000000000000000000000000000000000000000815260040161170391906126b3565b60405180910390fd5b600080fd5b600073ffffffffffffffffffffffffffffffffffffffff82169050919050565b600061173c82611711565b9050919050565b61174c81611731565b811461175757600080fd5b50565b60008135905061176981611743565b92915050565b600080600080600060a0868803121561178b5761178a61170c565b5b60006117998882890161175a565b95505060206117aa8882890161175a565b94505060406117bb8882890161175a565b93505060606117cc8882890161175a565b92505060806117dd8882890161175a565b9150509295509295909350565b6000819050919050565b6117fd816117ea565b811461180857600080fd5b50565b60008135905061181a816117f4565b92915050565b600080604083850312156118375761183661170c565b5b60006118458582860161175a565b92505060206118568582860161180b565b9150509250929050565b6000602082840312156118765761187561170c565b5b60006118848482850161175a565b91505092915050565b611896816117ea565b82525050565b60006020820190506118b1600083018461188d565b92915050565b6118c081611731565b82525050565b60006020820190506118db60008301846118b7565b92915050565b600082825260208201905092915050565b7f496e697469616c697a61626c653a20636f6e747261637420697320616c72656160008201527f647920696e697469616c697a6564000000000000000000000000000000000000602082015250565b600061194e602e836118e1565b9150611959826118f2565b604082019050919050565b6000602082019050818103600083015261197d81611941565b9050919050565b6000819050919050565b600060ff82169050919050565b6000819050919050565b60006119c06119bb6119b684611984565b61199b565b61198e565b9050919050565b6119d0816119a5565b82525050565b60006020820190506119eb60008301846119c7565b92915050565b7f616d6f756e74206d757374206265203e20302100000000000000000000000000600082015250565b6000611a276013836118e1565b9150611a32826119f1565b602082019050919050565b60006020820190508181036000830152611a5681611a1a565b9050919050565b7f4e487b7100000000000000000000000000000000000000000000000000000000600052601160045260246000fd5b6000611a97826117ea565b9150611aa2836117ea565b9250828201905080821115611aba57611ab9611a5d565b5b92915050565b6000819050919050565b600061ffff82169050919050565b6000611af3611aee611ae984611ac0565b61199b565b611aca565b9050919050565b611b0381611ad8565b82525050565b6000608082019050611b1e60008301876118b7565b611b2b602083018661188d565b611b3860408301856118b7565b611b456060830184611afa565b95945050505050565b7f4f776e61626c653a206e6577206f776e657220697320746865207a65726f206160008201527f6464726573730000000000000000000000000000000000000000000000000000602082015250565b6000611baa6026836118e1565b9150611bb582611b4e565b604082019050919050565b60006020820190508181036000830152611bd981611b9d565b9050919050565b7f5f616d6f756e74206d757374206265203e203021000000000000000000000000600082015250565b6000611c166014836118e1565b9150611c2182611be0565b602082019050919050565b60006020820190508181036000830152611c4581611c09565b9050919050565b6000604082019050611c6160008301856118b7565b611c6e60208301846118b7565b9392505050565b600081519050611c84816117f4565b92915050565b600064ffffffffff82169050919050565b611ca481611c8a565b8114611caf57600080fd5b50565b600081519050611cc181611c9b565b92915050565b60008115159050919050565b611cdc81611cc7565b8114611ce757600080fd5b50565b600081519050611cf981611cd3565b92915050565b60008060008060008060008060006101208a8c031215611d2257611d2161170c565b5b6000611d308c828d01611c75565b9950506020611d418c828d01611c75565b9850506040611d528c828d01611c75565b9750506060611d638c828d01611c75565b9650506080611d748c828d01611c75565b95505060a0611d858c828d01611c75565b94505060c0611d968c828d01611c75565b93505060e0611da78c828d01611cb2565b925050610100611db98c828d01611cea565b9150509295985092959850929598565b7f496e73756666696369616e742062616c616e6365000000000000000000000000600082015250565b6000611dff6014836118e1565b9150611e0a82611dc9565b602082019050919050565b60006020820190508181036000830152611e2e81611df2565b9050919050565b600060208284031215611e4b57611e4a61170c565b5b6000611e5984828501611c75565b91505092915050565b6000606082019050611e7760008301866118b7565b611e84602083018561188d565b611e9160408301846118b7565b949350505050565b7f30207768697468647261776e2066726f6d204141564521000000000000000000600082015250565b6000611ecf6017836118e1565b9150611eda82611e99565b602082019050919050565b60006020820190508181036000830152611efe81611ec2565b9050919050565b6000611f10826117ea565b9150611f1b836117ea565b9250828203905081811115611f3357611f32611a5d565b5b92915050565b7f4f776e61626c653a2063616c6c6572206973206e6f7420746865206f776e6572600082015250565b6000611f6f6020836118e1565b9150611f7a82611f39565b602082019050919050565b60006020820190508181036000830152611f9e81611f62565b9050919050565b6000606082019050611fba60008301866118b7565b611fc760208301856118b7565b611fd4604083018461188d565b949350505050565b6000611fe7826117ea565b9150611ff2836117ea565b9250828202612000816117ea565b9150828204841483151761201757612016611a5d565b5b5092915050565b7f4e487b7100000000000000000000000000000000000000000000000000000000600052601260045260246000fd5b6000612058826117ea565b9150612063836117ea565b9250826120735761207261201e565b5b828204905092915050565b7f4e6f207175616e74697479210000000000000000000000000000000000000000600082015250565b60006120b4600c836118e1565b91506120bf8261207e565b602082019050919050565b600060208201905081810360008301526120e3816120a7565b9050919050565b60006040820190506120ff60008301856118b7565b61210c602083018461188d565b9392505050565b6000819050919050565b600061212882612113565b915061213383612113565b925082820390508181126000841216828213600085121516171561215a57612159611a5d565b5b92915050565b600061216b82612113565b915061217683612113565b925082820261218481612113565b91507f800000000000000000000000000000000000000000000000000000000000000084146000841216156121bc576121bb611a5d565b5b82820584148315176121d1576121d0611a5d565b5b5092915050565b60006121e382612113565b91506121ee83612113565b9250826121fe576121fd61201e565b5b600160000383147f80000000000000000000000000000000000000000000000000000000000000008314161561223757612236611a5d565b5b828205905092915050565b6000602082840312156122585761225761170c565b5b600061226684828501611cea565b91505092915050565b7f5361666545524332303a204552433230206f7065726174696f6e20646964206e60008201527f6f74207375636365656400000000000000000000000000000000000000000000602082015250565b60006122cb602a836118e1565b91506122d68261226f565b604082019050919050565b600060208201905081810360008301526122fa816122be565b9050919050565b61230a8161198e565b811461231557600080fd5b50565b60008151905061232781612301565b92915050565b6000602082840312156123435761234261170c565b5b600061235184828501612318565b91505092915050565b60008160011c9050919050565b6000808291508390505b60018511156123b15780860481111561238d5761238c611a5d565b5b600185161561239c5780820291505b80810290506123aa8561235a565b9450612371565b94509492505050565b6000826123ca5760019050612486565b816123d85760009050612486565b81600181146123ee57600281146123f857612427565b6001915050612486565b60ff84111561240a57612409611a5d565b5b8360020a91508482111561242157612420611a5d565b5b50612486565b5060208310610133831016604e8410600b841016171561245c5782820a90508381111561245757612456611a5d565b5b612486565b6124698484846001612367565b925090508184048111156124805761247f611a5d565b5b81810290505b9392505050565b6000612498826117ea565b91506124a38361198e565b92506124d07fffffffffffffffffffffffffffffffffffffffffffffffffffffffffffffffff84846123ba565b905092915050565b7f416464726573733a20696e73756666696369656e742062616c616e636520666f60008201527f722063616c6c0000000000000000000000000000000000000000000000000000602082015250565b60006125346026836118e1565b915061253f826124d8565b604082019050919050565b6000602082019050818103600083015261256381612527565b9050919050565b600081519050919050565b600081905092915050565b60005b8381101561259e578082015181840152602081019050612583565b60008484015250505050565b60006125b58261256a565b6125bf8185612575565b93506125cf818560208601612580565b80840191505092915050565b60006125e782846125aa565b915081905092915050565b7f416464726573733a2063616c6c20746f206e6f6e2d636f6e7472616374000000600082015250565b6000612628601d836118e1565b9150612633826125f2565b602082019050919050565b600060208201905081810360008301526126578161261b565b9050919050565b600081519050919050565b6000601f19601f8301169050919050565b60006126858261265e565b61268f81856118e1565b935061269f818560208601612580565b6126a881612669565b840191505092915050565b600060208201905081810360008301526126cd818461267a565b90509291505056fea2646970667358221220eeffc6c26b1b58a2cc0ca52b00b2089bb7bce182152dc683c05ae84dcc249d5164736f6c63430008110033",
  "devdoc": {
    "details": "This smart contract creates and keep track of the HelloDefiAAVE2 smart contract using  the clone pattern in order to save gas.",
    "kind": "dev",
    "methods": {},
    "title": "HelloDefiAAVE2Factory",
    "version": 1
  },
  "userdoc": {
    "kind": "user",
    "methods": {},
    "version": 1
  },
  "storageLayout": {
    "storage": [
      {
        "astId": 3112,
        "contract": "contracts/HelloDefiAAVE2Factory.sol:HelloDefiAAVE2Factory",
        "label": "userContracts",
        "offset": 0,
        "slot": "0",
        "type": "t_mapping(t_address,t_address)"
      }
    ],
    "types": {
      "t_address": {
        "encoding": "inplace",
        "label": "address",
        "numberOfBytes": "20"
      },
      "t_mapping(t_address,t_address)": {
        "encoding": "mapping",
        "key": "t_address",
        "label": "mapping(address => address)",
        "numberOfBytes": "32",
        "value": "t_address"
      }
    }
  }
}