{
  "address": "0xF88c64D0aa0E89c41c544fAeE06a87f3cB499adD",
  "abi": [
    {
      "anonymous": false,
      "inputs": [
        {
          "indexed": true,
          "internalType": "address",
          "name": "previousOwner",
          "type": "address"
        },
        {
          "indexed": true,
          "internalType": "address",
          "name": "newOwner",
          "type": "address"
        }
      ],
      "name": "OwnershipTransferred",
      "type": "event"
    },
    {
      "inputs": [],
      "name": "owner",
      "outputs": [
        {
          "internalType": "address",
          "name": "",
          "type": "address"
        }
      ],
      "stateMutability": "view",
      "type": "function"
    },
    {
      "inputs": [],
      "name": "renounceOwnership",
      "outputs": [],
      "stateMutability": "nonpayable",
      "type": "function"
    },
    {
      "inputs": [
        {
          "internalType": "address",
          "name": "newOwner",
          "type": "address"
        }
      ],
      "name": "transferOwnership",
      "outputs": [],
      "stateMutability": "nonpayable",
      "type": "function"
    },
    {
      "inputs": [
        {
          "internalType": "address",
          "name": "_asset",
          "type": "address"
        },
        {
          "internalType": "uint256",
          "name": "_amount",
          "type": "uint256"
        }
      ],
      "name": "withdraw",
      "outputs": [],
      "stateMutability": "nonpayable",
      "type": "function"
    }
  ],
  "transactionHash": "0x247ffb00da977434e6c97f556215d8e6c79626a8ea4a095c28da7ee1017c834b",
  "args": [],
  "numDeployments": 1,
  "solcInputHash": "74d66a33bb47b3b984a719ae0edd406a",
  "bytecode": "0x608060405234801561001057600080fd5b5061002d61002261003260201b60201c565b61003a60201b60201c565b6100fe565b600033905090565b60008060009054906101000a900473ffffffffffffffffffffffffffffffffffffffff169050816000806101000a81548173ffffffffffffffffffffffffffffffffffffffff021916908373ffffffffffffffffffffffffffffffffffffffff1602179055508173ffffffffffffffffffffffffffffffffffffffff168173ffffffffffffffffffffffffffffffffffffffff167f8be0079c531659141344cd1fd0a4f28419497f9722a3daafe3b4186f6b6457e060405160405180910390a35050565b610c5c8061010d6000396000f3fe608060405234801561001057600080fd5b506004361061004c5760003560e01c8063715018a6146100515780638da5cb5b1461005b578063f2fde38b14610079578063f3fef3a314610095575b600080fd5b6100596100b1565b005b6100636100c5565b6040516100709190610690565b60405180910390f35b610093600480360381019061008e91906106dc565b6100ee565b005b6100af60048036038101906100aa919061073f565b610171565b005b6100b96101eb565b6100c36000610269565b565b60008060009054906101000a900473ffffffffffffffffffffffffffffffffffffffff16905090565b6100f66101eb565b600073ffffffffffffffffffffffffffffffffffffffff168173ffffffffffffffffffffffffffffffffffffffff1603610165576040517f08c379a000000000000000000000000000000000000000000000000000000000815260040161015c90610802565b60405180910390fd5b61016e81610269565b50565b6101796101eb565b600081116101bc576040517f08c379a00000000000000000000000000000000000000000000000000000000081526004016101b39061086e565b60405180910390fd5b6101e733828473ffffffffffffffffffffffffffffffffffffffff1661032d9092919063ffffffff16565b5050565b6101f36103b3565b73ffffffffffffffffffffffffffffffffffffffff166102116100c5565b73ffffffffffffffffffffffffffffffffffffffff1614610267576040517f08c379a000000000000000000000000000000000000000000000000000000000815260040161025e906108da565b60405180910390fd5b565b60008060009054906101000a900473ffffffffffffffffffffffffffffffffffffffff169050816000806101000a81548173ffffffffffffffffffffffffffffffffffffffff021916908373ffffffffffffffffffffffffffffffffffffffff1602179055508173ffffffffffffffffffffffffffffffffffffffff168173ffffffffffffffffffffffffffffffffffffffff167f8be0079c531659141344cd1fd0a4f28419497f9722a3daafe3b4186f6b6457e060405160405180910390a35050565b6103ae8363a9059cbb60e01b848460405160240161034c929190610909565b604051602081830303815290604052907bffffffffffffffffffffffffffffffffffffffffffffffffffffffff19166020820180517bffffffffffffffffffffffffffffffffffffffffffffffffffffffff83818316178352505050506103bb565b505050565b600033905090565b600061041d826040518060400160405280602081526020017f5361666545524332303a206c6f772d6c6576656c2063616c6c206661696c65648152508573ffffffffffffffffffffffffffffffffffffffff166104829092919063ffffffff16565b905060008151111561047d578080602001905181019061043d919061096a565b61047c576040517f08c379a000000000000000000000000000000000000000000000000000000000815260040161047390610a09565b60405180910390fd5b5b505050565b6060610491848460008561049a565b90509392505050565b6060824710156104df576040517f08c379a00000000000000000000000000000000000000000000000000000000081526004016104d690610a9b565b60405180910390fd5b6000808673ffffffffffffffffffffffffffffffffffffffff1685876040516105089190610b2c565b60006040518083038185875af1925050503d8060008114610545576040519150601f19603f3d011682016040523d82523d6000602084013e61054a565b606091505b509150915061055b87838387610567565b92505050949350505050565b606083156105c95760008351036105c157610581856105dc565b6105c0576040517f08c379a00000000000000000000000000000000000000000000000000000000081526004016105b790610b8f565b60405180910390fd5b5b8290506105d4565b6105d383836105ff565b5b949350505050565b6000808273ffffffffffffffffffffffffffffffffffffffff163b119050919050565b6000825111156106125781518083602001fd5b806040517f08c379a00000000000000000000000000000000000000000000000000000000081526004016106469190610c04565b60405180910390fd5b600073ffffffffffffffffffffffffffffffffffffffff82169050919050565b600061067a8261064f565b9050919050565b61068a8161066f565b82525050565b60006020820190506106a56000830184610681565b92915050565b600080fd5b6106b98161066f565b81146106c457600080fd5b50565b6000813590506106d6816106b0565b92915050565b6000602082840312156106f2576106f16106ab565b5b6000610700848285016106c7565b91505092915050565b6000819050919050565b61071c81610709565b811461072757600080fd5b50565b60008135905061073981610713565b92915050565b60008060408385031215610756576107556106ab565b5b6000610764858286016106c7565b92505060206107758582860161072a565b9150509250929050565b600082825260208201905092915050565b7f4f776e61626c653a206e6577206f776e657220697320746865207a65726f206160008201527f6464726573730000000000000000000000000000000000000000000000000000602082015250565b60006107ec60268361077f565b91506107f782610790565b604082019050919050565b6000602082019050818103600083015261081b816107df565b9050919050565b7f5f616d6f756e74206d757374206265203e203021000000000000000000000000600082015250565b600061085860148361077f565b915061086382610822565b602082019050919050565b600060208201905081810360008301526108878161084b565b9050919050565b7f4f776e61626c653a2063616c6c6572206973206e6f7420746865206f776e6572600082015250565b60006108c460208361077f565b91506108cf8261088e565b602082019050919050565b600060208201905081810360008301526108f3816108b7565b9050919050565b61090381610709565b82525050565b600060408201905061091e6000830185610681565b61092b60208301846108fa565b9392505050565b60008115159050919050565b61094781610932565b811461095257600080fd5b50565b6000815190506109648161093e565b92915050565b6000602082840312156109805761097f6106ab565b5b600061098e84828501610955565b91505092915050565b7f5361666545524332303a204552433230206f7065726174696f6e20646964206e60008201527f6f74207375636365656400000000000000000000000000000000000000000000602082015250565b60006109f3602a8361077f565b91506109fe82610997565b604082019050919050565b60006020820190508181036000830152610a22816109e6565b9050919050565b7f416464726573733a20696e73756666696369656e742062616c616e636520666f60008201527f722063616c6c0000000000000000000000000000000000000000000000000000602082015250565b6000610a8560268361077f565b9150610a9082610a29565b604082019050919050565b60006020820190508181036000830152610ab481610a78565b9050919050565b600081519050919050565b600081905092915050565b60005b83811015610aef578082015181840152602081019050610ad4565b60008484015250505050565b6000610b0682610abb565b610b108185610ac6565b9350610b20818560208601610ad1565b80840191505092915050565b6000610b388284610afb565b915081905092915050565b7f416464726573733a2063616c6c20746f206e6f6e2d636f6e7472616374000000600082015250565b6000610b79601d8361077f565b9150610b8482610b43565b602082019050919050565b60006020820190508181036000830152610ba881610b6c565b9050919050565b600081519050919050565b6000601f19601f8301169050919050565b6000610bd682610baf565b610be0818561077f565b9350610bf0818560208601610ad1565b610bf981610bba565b840191505092915050565b60006020820190508181036000830152610c1e8184610bcb565b90509291505056fea26469706673582212203b8b0e2ff063de8e36f2d34d7c242e0fa6e2fdf390f5d820e2d8bf35a0598f1864736f6c63430008110033",
  "devdoc": {
    "details": "FeesCollector is the smart contract to collect the fees from user's HelloDefiAAVE2 deposits and withdraws",
    "kind": "dev",
    "methods": {
      "owner()": {
        "details": "Returns the address of the current owner."
      },
      "renounceOwnership()": {
        "details": "Leaves the contract without owner. It will not be possible to call `onlyOwner` functions anymore. Can only be called by the current owner. NOTE: Renouncing ownership will leave the contract without an owner, thereby removing any functionality that is only available to the owner."
      },
      "transferOwnership(address)": {
        "details": "Transfers ownership of the contract to a new account (`newOwner`). Can only be called by the current owner."
      }
    },
    "version": 1
  },
  "userdoc": {
    "kind": "user",
    "methods": {},
    "version": 1
  },
  "storageLayout": {
    "storage": [
      {
        "astId": 506,
        "contract": "contracts/FeesCollector.sol:FeesCollector",
        "label": "_owner",
        "offset": 0,
        "slot": "0",
        "type": "t_address"
      }
    ],
    "types": {
      "t_address": {
        "encoding": "inplace",
        "label": "address",
        "numberOfBytes": "20"
      }
    }
  }
}